:020000040800F2
:1000000018040024AD02000871200008291F000810
:1000100069200008190300083924000800000000C6
:1000200000000000000000000000000001210008A6
:100030002103000800000000F920000869210008E1
:10004000C7020008C7020008C7020008C70200086C
:10005000C7020008C7020008C7020008C70200085C
:1000600029030008C7020008C7020008C7020008E9
:10007000C7020008C7020008C7020008C70200083C
:10008000C7020008C7020008C7020008C70200082C
:10009000C7020008C7020008C7020008C70200081C
:1000A000C7020008C7020008C7020008C70200080C
:1000B000C7020008C7020008C7020008C7020008FC
:1000C000C7020008C7020008C7020008C7020008EC
:1000D000C7020008C7020008C7020008C7020008DC
:1000E000C7020008C702000800000000C70200089D
:1000F000C7020008C7020008C7020008C7020008BC
:10010000C7020008C7020008C7020008C7020008AB
:10011000C7020008C7020008C7020008C70200089B
:10012000C7020008C7020008C7020008C70200088B
:10013000C7020008C7020008C7020008C70200087B
:1001400000000000000000000000000000000000AF
:10015000C7020008C7020008C7020008C70200085B
:10016000C7020008C7020008C7020008C70200084B
:10017000C7020008C7020008C7020008C70200083B
:10018000C7020008C7020008C7020008C70200082B
:10019000C7020008C7020008C7020008C70200081B
:1001A000C7020008C7020008C7020008C70200080B
:1001B000C7020008C7020008C7020008C7020008FB
:1001C000C7020008C7020008C7020008C7020008EB
:1001D000C7020008C7020008C7020008C7020008DB
:1001E000C7020008C7020008C7020008C7020008CB
:1001F000C7020008C7020008C7020008C7020008BB
:10020000C7020008C7020008C7020008C7020008AA
:10021000C7020008C7020008C7020008C70200089A
:10022000C7020008C7020008C7020008000000005B
:10023000C7020008C702000800000000C70200084B
:10024000C7020008C7020008C7020008C70200086A
:10025000C7020008C7020008C7020008C70200085A
:10026000C7020008C7020008C7020008C70200084A
:10027000C7020008C7020008C7020008000000000B
:10028000C7020008C7020008C702000800000000FB
:1002900000000000C7020008DFF80CD000F02AF8C8
:1002A0000048004719250008180400240648804724
:1002B00006480047FEE7FEE7FEE7FEE7FEE7FEE74B
:1002C000FEE7FEE7FEE7FEE7D922000899020008F4
:1002D000D2B201E000F8012B491EFBD27047002288
:1002E000F6E710B513460A4604461946FFF7F0FF35
:1002F000204610BD064C074D06E0E06840F00103C3
:1003000094E8070098471034AC42F6D3FFF7C8FFD3
:100310008C250008AC250008FFE7FEE70000000080
:10032000704700000000000080B582B00020C5F6D4
:1003300002000421019100F027FA40F20801C2F204
:1003400000410870019800F013F802B080BD000071
:1003500081B0EFF3108072B60090FFE7FEE7000077
:1003600082B00146ADF80600009102B0704700006F
:1003700080B582B00146ADF806008820C5F60000C1
:100380000068BDF80620104200910BD0FFE7BDF8D1
:1003900006008821C5F600010860BDF80600FFF7D9
:1003A000DFFFFFE702B080BD93B00A46034612901C
:1003B0001191002010908020C5F600000D900B9246
:1003C0000A93FFE7119800681099C840002800F0D0
:1003D000D881FFE7119800681099012202FA01F113
:1003E00008400F900F98002800F0C781FFE7119890
:1003F000406800F00300012807D0FFE7119840682B
:1004000000F0030002282FD1FFE7129880680E90B9
:1004100010984000032101FA00F00E9921EA000033
:100420000E901198C0681099490088400E990843B1
:100430000E900E9812998860129840680E9010984D
:10044000012101FA00F00E9921EA00000E901198A6
:100450004068C0F30010109988400E9908430E9030
:100460000E9812994860FFE71198406800F0030069
:10047000032818D0FFE71298C0680E90109840002B
:10048000032101FA00F00E9921EA00000E90119864
:1004900080681099490088400E9908430E900E9884
:1004A0001299C860FFE71198406800F00300022825
:1004B00028D1FFE7129810994FF6FC72C7F6FF7229
:1004C00002EA51010844006A0E90109800F00700FB
:1004D00080000F2101FA00F00E9921EA00000E9031
:1004E00011980069109901F00701890088400E9960
:1004F00008430E900E981299109B02EA5302114481
:100500000862FFE7129800680E90109840000321DF
:1005100001FA00F00E9921EA00000E90119840684F
:1005200000F003001099490088400E9908430E908E
:100530000E9812990860119880798007002800F0C1
:100540001B81FFE7FFE744F2F440C5F602000168B3
:1005500041F002010160006800F002000C900C986C
:100560000990FFE7109820F0030040F20841C5F61B
:10057000000140580E90109800F0030080000F21F9
:1005800001FA00F00E9921EA00000E901298002165
:10059000C5F60201884203D1FFE7002008907AE007
:1005A000129840F20041C5F60201884203D1FFE7EC
:1005B000012007906CE0129840F60001C5F6020198
:1005C000884203D1FFE7022006905EE0129840F6D1
:1005D0000041C5F60201884203D1FFE703200590E0
:1005E00050E0129841F20001C5F60201884203D1A1
:1005F000FFE70420049042E0129841F20041C5F662
:100600000201884203D1FFE70520039034E01298ED
:1006100041F60001C5F60201884203D1FFE706203A
:10062000029026E0129841F60041C5F60201884288
:1006300003D1FFE70720019018E0129842F2000171
:10064000C5F60201884203D1FFE7082000900AE0C6
:10065000129842F20041C5F602010A22884208BF00
:1006600009220092FFE700980190FFE701980290AD
:10067000FFE702980390FFE703980490FFE70498D0
:100680000590FFE705980690FFE706980790FFE7BB
:1006900007980890FFE70898109901F00301890076
:1006A00088400E9908430E900E98109921F003018E
:1006B00040F20842C5F6000288504FF0B040006892
:1006C0000E900F980E9921EA00000E9011988079F3
:1006D000C006002805D5FFE70F980E9908430E9035
:1006E000FFE70E984FF0B04108600420C5F6000007
:1006F00000680E900F980E9921EA00000E90119854
:1007000080798006002805D5FFE70F980E990843E9
:100710000E90FFE70E980421C5F6000108600D98C1
:1007200040680E900F980E9921EA00000E901198E3
:1007300080798007002805D5FFE70F980E990843B8
:100740000E90FFE70E980D9948600D9800680E9086
:100750000F980E9921EA00000E9011988079C00739
:10076000002805D0FFE70F980E9908430E90FFE789
:100770000E980D990860FFE7FFE710980130109080
:1007800020E613B07047000084B00A460346039089
:10079000ADF80A1003980069BDF80A1008420192EA
:1007A000009304D0FFE701208DF8090003E000204A
:1007B0008DF80900FFE79DF8090004B070470000BC
:1007C00080B585B013468C4686460490ADF80E1071
:1007D0008DF80D209DF80D0000280293CDF804C07F
:1007E000CDF800E005D0FFE7BDF80E000499886160
:1007F00005E0BDF80E00000404998861FFE705B02C
:1008000080BD00000000000041F20000C5F600407D
:100810000068000C7047000040F21000C2F2004077
:10082000006870470000000040F20900C2F200407A
:10083000007840F21001C2F200410A6810440860DA
:10084000704700000000000080B582B0032000F077
:1008500037F900F0F1FB44F2184EC5F6020EDEF84F
:100860000010C1F3032142F27C52C0F60002515C39
:1008700001F01F01C84000900098DEF8001001F060
:100880000F01515C01F01F01C84040F20401C2F2A7
:1008900000410860009840F20001C2F20041086087
:1008A0000F2000F015F8002804D0FFE701208DF894
:1008B000070006E000F0C0F84FF0000E8DF807E0EA
:1008C000FFE79DF8070002B080BD000000000000B7
:1008D00080B584B00146029040F20900C2F20040A7
:1008E00000780028019104D1FFE701208DF80F0066
:1008F00031E040F20000C2F20040006840F209011D
:10090000C2F2004109784FF47A72B2FBF1F1B0FB08
:10091000F1F001F0FDFA002804D0FFE701208DF886
:100920000F0018E002980F280DD8FFE702994FF04A
:10093000FF30002200F0A0F8029840F20C01C2F251
:100940000041086003E001208DF80F0003E0002063
:100950008DF80F00FFE79DF80F0004B080BD000088
:10096000B0B582B001460190019840784EF6985299
:10097000CEF2000210604EF6A050CEF200000268E7
:1009800022F001020260019A52684EF69C53CEF2A8
:1009900000031A60019A137B1B0792F80BC043EA0D
:1009A0000C6392F800C092F808E0547A957A43EA12
:1009B000C543557B43EA8543957B43EA4543D27B58
:1009C00043EA024242EA042242EA4E0242EA0C02AE
:1009D0000260009102B0B0BDBFF35F8F4EF62450AD
:1009E000CEF20000016821F4803101604EF694508F
:1009F000CEF20000002101607047000000000000FE
:100A000082B001460190019840F001004EF69452E8
:100A1000CEF2000210604EF62450CEF200000268C2
:100A200042F480320260BFF34F8FBFF36F8F0091AB
:100A300002B070470000000082B0FFE744F2F440CB
:100A4000C5F60200016841F002010160006800F093
:100A50000200019001980090FFE702B0704700008B
:100A600080B582B00146ADF80600BDF906000091E0
:100A700001F0E6FC02B080BD80B58AB013468C461A
:100A80008646ADF82600089107920593CDF810C070
:100A9000CDF80CE001F0F0FC069006980899079A52
:100AA000BDF92630029301F0E7FA02990190084659
:100AB000019901F0E9FC0AB080BD000000000000CF
:100AC00080B582B0014601900198009101F004FDCB
:100AD00002B080BD0000000080B584B001460290E5
:100AE00044F60C00C5F60200006800F00400002285
:100AF000B2EB900F009113D1FFE744F60C00C5F65E
:100B00000200006800F007000299884204D0FFE765
:100B100001208DF80F0030E000208DF80F002CE050
:100B200044F60C00C5F60200016821F00701029AA4
:100B300011430160FFF770FE0190FFE744F60400E7
:100B4000C5F60200006800F400500021B1EB503FF0
:100B50000FD1FFE7FFF760FEDDF804E0A0EB0E0029
:100B6000B0F57A7F04D9FFE701208DF80F0004E08B
:100B7000E4E700208DF80F00FFE79DF80F0004B0B8
:100B800080BD00000000000080B588B00A46034622
:100B900006900591069800280192009304D1FFE782
:100BA00001208DF81F0040E2059842F20001C5F2D5
:100BB0000021096801F00F01884216D9FFE742F2CF
:100BC0000000C5F20020016821F00F01059A1143D1
:100BD0000160006800F00F000599884204D0FFE72B
:100BE00001208DF81F0020E2FFE70698006840070B
:100BF000002819D5FFE70698006944F21841C5F6A8
:100C00000201096801F0700188420CD9FFE744F243
:100C10001840C5F60200016821F07001069A1269B9
:100C200011430160FFE7FFE706980068000700280E
:100C300019D5FFE70698406944F21C41C5F6020148
:100C4000096801F0700188420CD9FFE744F21C40AA
:100C5000C5F60200016821F07001069A526911433D
:100C60000160FFE7FFE706980068C006002819D575
:100C7000FFE70698806944F21C41C5F60201096845
:100C800001F4E06188420CD9FFE744F21C40C5F64C
:100C90000200016821F4E061069A92691143016043
:100CA000FFE7FFE7069800688006002819D5FFE7F0
:100CB0000698C06944F22041C5F60201096801F0B6
:100CC000700188420CD9FFE744F22040C5F60200CB
:100CD000016821F07001069AD26911430160FFE7B3
:100CE000FFE7069800688007002819D5FFE70698F7
:100CF000C06844F21841C5F60201096801F00F010D
:100D000088420CD9FFE744F21840C5F6020001689A
:100D100021F00F01069AD26811430160FFE7FFE757
:100D200006980068C007002800F08E80FFE744F2B4
:100D30001840C5F60200016821F47061069A9268B5
:100D40001143016006984068022811D1FFE744F280
:100D50000040C5F60200006800F400300021B1EB4D
:100D6000504F04D1FFE701208DF81F005DE13EE008
:100D700006984068032811D1FFE744F20040C5F609
:100D80000200006800F000700021B1EB506F04D148
:100D9000FFE701208DF81F0047E127E00698406833
:100DA000012811D1FFE744F20040C5F602000068B7
:100DB00000F480700021B1EB102F04D1FFE7012077
:100DC0008DF81F0031E110E044F20040C5F602004A
:100DD000006800F004000021B1EB900F04D1FFE7A0
:100DE00001208DF81F0020E1FFE7FFE7FFE744F255
:100DF0001040C5F60200016821F00701069A52680A
:100E000011430160FFF708FD0390FFE744F2104033
:100E1000C5F60200006800F0380006994968B0EB9A
:100E2000C10F10D0FFE7FFF7F7FCDDF80CE0A0EBF7
:100E30000E0041F2893E704504D3FFE703208DF890
:100E40001F00F2E0E2E7FFE706980068800700284D
:100E500019D5FFE70698C06844F21841C5F60201AB
:100E6000096801F00F0188420CD2FFE744F21840F4
:100E7000C5F60200016821F00F01069AD2681143FD
:100E80000160FFE7FFE7059842F20001C5F200218B
:100E9000096801F00F01884216D2FFE742F2000014
:100EA000C5F20020016821F00F01059A114301608D
:100EB000006800F00F000599884204D0FFE7012088
:100EC0008DF81F00B1E0FFE7069800684007002892
:100ED00019D5FFE70698006944F21841C5F60201EA
:100EE000096801F0700188420CD2FFE744F2184013
:100EF000C5F60200016821F07001069A12691143DB
:100F00000160FFE7FFE7069800680007002819D591
:100F1000FFE70698406944F21C41C5F602010968E2
:100F200001F0700188420CD2FFE744F21C40C5F684
:100F30000200016821F07001069A526911430160B4
:100F4000FFE7FFE706980068C006002819D5FFE70D
:100F50000698806944F21C41C5F60201096801F453
:100F6000E06188420CD2FFE744F21C40C5F6020063
:100F7000016821F4E061069A926911430160FFE77C
:100F8000FFE7069800688006002819D5FFE7069855
:100F9000C06944F22041C5F60201096801F0700100
:100FA00088420CD2FFE744F22040C5F602000168F7
:100FB00021F07001069AD26911430160FFE7FFE753
:100FC00000F03AF844F2184EC5F6020EDEF80010B2
:100FD000C1F3032142F27C52C0F60002515C01F0E1
:100FE0001F01C84002900298DEF8001001F00F01C6
:100FF000515C01F01F01C84040F20401C2F20041FF
:101000000860029840F20001C2F20041086040F21C
:101010000C00C2F200400068FFF75AFC8DF8130084
:101020009DF813008DF81F00FFE79DF81F0008B022
:1010300080BD0000000000008AB044F21040C5F6F8
:101040000200006800F0380001461828019100F203
:1010500071810199DFE811F019006E016E016E01D6
:101060006E016E016E016E013B006E016E016E013C
:101070006E016E016E016E0141006E016E016E0126
:101080006E016E016E016E01470044F20040C5F62C
:101090000200006800F020000021B1EB501F0FD0CB
:1010A000FFE744F20040C5F602000068C0F3C1004B
:1010B00049F20001C0F2D03121FA00F0029005E0BF
:1010C00049F20000C0F2D0300290FFE738E140F66C
:1010D0000010C0F23D00029032E147F64000C0F23D
:1010E0007D1002902CE144F22840C5F60200016810
:1010F00001F0030108910068C0F30510079044F265
:101100002C40C5F60200006800F001000690069829
:1011100044F23441C5F602010968C1F3CC014843E9
:1011200000EE100AB8EE400A8DED040A0798002878
:1011300000F0FC80FFE708980028009009D0FFE746
:10114000009801286BD0FFE70098022800F08C80FF
:10115000AFE044F20040C5F60200006800F0200055
:101160000021B1EB501F34D0FFE744F20040C5F638
:1011700002000068C0F3C10049F20001C0F2D031A2
:1011800021FA00F005909DED050AB8EE400A9DEDAC
:10119000071AB8EE411A80EE010A44F23040C5F653
:1011A000020000686FF35F2001EE100AB8EE411AEA
:1011B0009DED042A9FED653A82EE032A31EE021A74
:1011C000B7EE002A31EE021A20EE010A8DED030A75
:1011D00024E0079800EE100AB8EE400A9FED5D1A71
:1011E00081EE000A44F23040C5F6020000686FF359
:1011F0005F2001EE100AB8EE411A9DED042A9FED22
:10120000533A82EE032A31EE021AB7EE002A31EE8B
:10121000021A20EE010A8DED030AFFE76EE007983F
:1012200000EE100AB8EE400A9FED491A81EE000A5E
:1012300044F23040C5F6020000686FF35F2001EE13
:10124000100AB8EE411A9DED042A9FED403A82EE55
:10125000032A31EE021AB7EE002A31EE021A20EE0E
:10126000010A8DED030A49E0079800EE100AB8EE76
:10127000400A9FED351A81EE000A44F23040C5F66F
:10128000020000686FF35F2001EE100AB8EE411A09
:101290009DED042A9FED2D3A82EE032A31EE021ACB
:1012A000B7EE002A31EE021A20EE010A8DED030A94
:1012B00024E0079800EE100AB8EE400A9FED241AC9
:1012C00081EE000A44F23040C5F6020000686FF378
:1012D0005F2001EE100AB8EE411A9DED042A9FED41
:1012E0001B3A82EE032A31EE021AB7EE002A31EEE3
:1012F000021A20EE010A8DED030AFFE744F23040A6
:10130000C5F60200006800F47E40012101EB502088
:1013100009909DED030A9DED091AB8EE411A80EE81
:10132000010ABCEEC00A8DED020A02E00020029024
:10133000FFE705E040F60010C0F23D000290FFE735
:1013400002980AB0704700BF20BCBE4B00000046A8
:101350000024744A0024744C80B58CB001460A9075
:101360000A980028009105D1FFE701208DF82F0091
:1013700000F0C9BD0A980068C007002800F0C080CE
:10138000FFE744F21040C5F60200006800F03800A4
:10139000069044F22840C5F60200006805900698C1
:1013A00010280AD0FFE7069818281DD1FFE70598F6
:1013B00000F00300022817D1FFE744F20040C5F611
:1013C0000200006800F400300021B1EB504F0AD059
:1013D000FFE70A984068002805D1FFE701208DF853
:1013E0002F0000F090BD8AE0FFE70A984068B0F552
:1013F000803F09D1FFE744F20040C5F602000168D2
:1014000041F48031016033E00A98406800280DD132
:10141000FFE744F20040C5F60200016821F4803184
:101420000160016821F48021016020E00A98406891
:10143000B0F5A02F0DD1FFE744F20040C5F6020041
:10144000016841F480210160016841F4803101604C
:101450000CE044F20040C5F60200016821F480313E
:101460000160016821F480210160FFE7FFE7FFE7E9
:10147000FFE70A984068002820D0FFE7FFF7CCF983
:101480000990FFE744F20040C5F60200006800F44E
:1014900000300021B1EB504F0FD1FFE7FFF7BCF94F
:1014A000DDF824E0A0EB0E00652805D3FFE703205C
:1014B0008DF82F0000F027BDE4E71FE0FFF7ACF93F
:1014C0000990FFE744F20040C5F60200006800F40E
:1014D00000300021B1EB504F0FD0FFE7FFF79CF930
:1014E000DDF824E0A0EB0E00652805D3FFE703201C
:1014F0008DF82F0000F007BDE4E7FFE7FFE7FFE707
:101500000A9800688007002840F11E81FFE744F236
:101510001040C5F60200006800F03800049044F264
:101520002840C5F6020000680390049800280AD0FD
:10153000FFE7049818287BD1FFE79DF80C0080078F
:10154000002875D1FFE744F20040C5F602000068AC
:1015500000F004000021B1EB900F0AD0FFE70A98D9
:10156000C068002805D1FFE701208DF82F0000F0AA
:10157000CABC44F20040C5F60200016821F019011E
:101580000A9AD26811430160FFF746F90990FFE714
:1015900044F20040C5F60200006800F0040000219B
:1015A000B1EB900F0FD1FFE7FFF736F9DDF824E03C
:1015B000A0EB0E00032805D3FFE703208DF82F00D2
:1015C00000F0A1BCE4E7FFE7FFF71EF941F2030ECC
:1015D00070451DD8FFE70A98006940280AD1FFE747
:1015E00044F20440C5F602000168202262F3113182
:1015F00001600CE044F20440C5F60200016821F4E9
:101600007C310A9A126941EA02310160FFE70CE07D
:1016100044F20440C5F60200016821F0FE410A9A36
:10162000126941EA02610160FFE7FFE7FFE78AE034
:101630000A98C06800285ED0FFE744F20040C5F673
:101640000200016821F019010A9AD2681143016071
:10165000FFF7E2F80990FFE744F20040C5F6020008
:10166000006800F004000021B1EB900F0FD1FFE7FC
:10167000FFF7D2F8DDF824E0A0EB0E00032805D335
:10168000FFE703208DF82F0000F03DBCE4E7FFE703
:10169000FFF7BAF841F2030E70451DD8FFE70A982C
:1016A000006940280AD1FFE744F20440C5F6020071
:1016B0000168202262F3113101600CE044F2044021
:1016C000C5F60200016821F47C310A9A126941EAE8
:1016D00002310160FFE70CE044F20440C5F602006D
:1016E000016821F0FE410A9A126941EA0261016033
:1016F000FFE7FFE726E044F20040C5F6020001687C
:1017000021F001010160FFF787F80990FFE744F23B
:101710000040C5F60200006800F004000021B1EBB3
:10172000900F0ED0FFE7FFF777F8DDF824E0A0EB8D
:101730000E00032804D3FFE703208DF82F00E2E317
:10174000E5E7FFE7FFE7FFE70A980068C006002823
:1017500040F1EF80FFE744F21040C5F60200006858
:1017600000F03800029044F22840C5F602000068FC
:101770000190029808280AD0FFE70298182850D153
:10178000FFE7019800F0030001284AD1FFE744F287
:101790000040C5F60200006800F480700021B1EB43
:1017A000102F09D0FFE70A98C069802804D0FFE70E
:1017B00001208DF82F00A6E3FFE7FFF725F841F29F
:1017C000030E70451DD8FFE70A98006A20280AD149
:1017D000FFE744F20440C5F602000168102262F3FC
:1017E0009E6101600CE044F20440C5F6020001680D
:1017F00021F0F8410A9A126A41EA82610160FFE72A
:101800000CE044F20C40C5F60200016821F07C5166
:101810000A9A126A41EA02610160FFE7FFE7FFE707
:1018200086E00A98C06900285AD0FFE744F20040D9
:10183000C5F60200016841F080010160FEF7ECFF8F
:101840000990FFE744F20040C5F60200006800F48A
:1018500080700021B1EB102F0ED1FFE7FEF7DCFF07
:10186000DDF824E0A0EB0E00032804D3FFE70320FB
:101870008DF82F0047E3E5E7FFE7FEF7C5FF41F2EC
:10188000030E70451DD8FFE70A98006A20280AD188
:10189000FFE744F20440C5F602000168102262F33B
:1018A0009E6101600CE044F20440C5F6020001684C
:1018B00021F0F8410A9A126A41EA82610160FFE769
:1018C0000CE044F20C40C5F60200016821F07C51A6
:1018D0000A9A126A41EA02610160FFE7FFE726E027
:1018E00044F20040C5F60200016821F08001016069
:1018F000FEF792FF0990FFE744F20040C5F60200B0
:10190000006800F480700021B1EB102F0ED0FFE7CB
:10191000FEF782FFDDF824E0A0EB0E00032804D3DD
:10192000FFE703208DF82F00EDE2E5E7FFE7FFE793
:10193000FFE70A9800680007002854D5FFE70A98D7
:101940004069002827D0FFE744F27440C5F6020042
:10195000016841F001010160FEF75EFF0990FFE7B9
:1019600044F27440C5F60200006800F00200002155
:10197000B1EB500F0ED1FFE7FEF74EFFDDF824E08C
:10198000A0EB0E00032804D3FFE703208DF82F00FF
:10199000B9E2E5E726E044F27440C5F602000168CA
:1019A00021F001010160FEF737FF0990FFE744F2E3
:1019B0007440C5F60200006800F002000021B1EB9F
:1019C000500F0ED0FFE7FEF727FFDDF824E0A0EB75
:1019D0000E00032804D3FFE703208DF82F0092E2C6
:1019E000E5E7FFE7FFE70A9800688006002854D57E
:1019F000FFE70A988069002827D0FFE744F20040FB
:101A0000C5F60200016841F480510160FEF704FF51
:101A10000990FFE744F20040C5F60200006800F4B8
:101A200000500021B1EB503F0ED1FFE7FEF7F4FE6E
:101A3000DDF824E0A0EB0E00032804D3FFE7032029
:101A40008DF82F005FE2E5E726E044F20040C5F69E
:101A50000200016821F480510160FEF7DDFE09906B
:101A6000FFE744F20040C5F60200006800F40050B1
:101A70000021B1EB503F0ED0FFE7FEF7CDFEDDF8C1
:101A800024E0A0EB0E00032804D3FFE703208DF829
:101A90002F0038E2E5E7FFE7FFE70A980068400714
:101AA000002840F1AF80FFE744F60000C5F60200D1
:101AB000016841F480710160FEF7AEFE0990FFE716
:101AC00044F60000C5F60200006810F4807F0ED1D5
:101AD000FFE7FEF7A1FEDDF824E0A0EB0E0065288D
:101AE00004D3FFE703208DF82F000CE2E8E7FFE7BF
:101AF0000A988068012809D1FFE744F27040C5F6D2
:101B00000200016841F00101016032E00A9880683A
:101B100000280DD1FFE744F27040C5F602000168CD
:101B200021F001010160016821F0040101601FE062
:101B30000A98806805280DD1FFE744F27040C5F689
:101B40000200016841F004010160016841F00101F7
:101B500001600CE044F27040C5F60200016821F01B
:101B600001010160016821F004010160FFE7FFE766
:101B7000FFE7FFE70A988068002821D0FFE7FEF71B
:101B80004BFE0990FFE744F27040C5F60200006882
:101B900000F002000021B1EB500F10D1FFE7FEF77B
:101BA0003BFEDDF824E0A0EB0E0041F2893E7045DB
:101BB00004D3FFE703208DF82F00A4E1E3E720E042
:101BC000FEF72AFE0990FFE744F27040C5F60200D6
:101BD000006800F002000021B1EB500F10D0FFE7C9
:101BE000FEF71AFEDDF824E0A0EB0E0041F2893E7C
:101BF000704504D3FFE703208DF82F0083E1E3E76E
:101C0000FFE7FFE70A98406A002800F07881FFE7C5
:101C100044F21040C5F60200006800F038001828B1
:101C200000F0E380FFE70A98406A022840F0B580A0
:101C3000FFE744F20040C5F60200016821F0807120
:101C40000160FEF7E9FD0990FFE744F20040C5F6A8
:101C50000200006800F000700021B1EB506F0ED060
:101C6000FFE7FEF7D9FDDDF824E0A0EB0E00032826
:101C700004D3FFE703208DF82F0044E1E5E7FFE7F9
:101C800044F22840C5F60200016840F2F332914365
:101C90000A9A936AD26A43EA0212114301600A98CF
:101CA000016B426B836BC06B01396FF35F214FF6A1
:101CB000006CCFF6FF7C0CEB422292B21143002263
:101CC000CFF6FF7202EB034202F4FE021143FF3033
:101CD0004FF0FE4202EA0060084344F23041C5F68C
:101CE00002010860FFE744F22C40C5F602000168DB
:101CF00021F00101016044F23441C5F602010A6895
:101D00004FF6F8739A430A9B9B6C42EAC3020A603F
:101D1000016821F00C010A9A126C114301600168FC
:101D200021F002010A9A526C11430160016841F4EA
:101D300080310160016841F400310160016841F4C3
:101D400080210160016841F00101016044F200401E
:101D5000C5F60200016841F080710160FEF75CFD8C
:101D60000990FFE744F20040C5F60200006800F069
:101D700000700021B1EB506F0ED1FFE7FEF74CFD74
:101D8000DDF824E0A0EB0E00032804D3FFE70320D6
:101D90008DF82F00B7E0E5E726E044F20040C5F6F5
:101DA0000200016821F080710160FEF735FD0990A5
:101DB000FFE744F20040C5F60200006800F0007042
:101DC0000021B1EB506F0ED0FFE7FEF725FDDDF8E7
:101DD00024E0A0EB0E00032804D3FFE703208DF8D6
:101DE0002F0090E0E5E7FFE788E044F22840C5F6E1
:101DF00002000068089044F23040C5F60200006816
:101E000007900A98406A012838D0FFE7089800F048
:101E100003000A99896A884230D1FFE7089800F4E4
:101E20007C700A99C96AB1EB101F27D1FFE70798A8
:101E30006FF35F200A99096B013988421ED1FFE7D1
:101E4000079800F47E400A99496B0139B1EB502F95
:101E500014D1FFE7079800F4FE000A99896B013955
:101E6000B1EB104F0AD1FFE7079800F0FE400A9946
:101E7000C96B0139B1EB106F04D0FFE701208DF879
:101E80002F0040E044F23440C5F602000068C0F381
:101E9000CC0008900A98806C089988422CD0FFE703
:101EA00044F22C40C5F60200016821F001010160F6
:101EB000FEF7B2FC0990FFE7FEF7AEFCDDF824E088
:101EC000A0EB0E00002801D1FFE7F5E744F2344013
:101ED000C5F6020001684FF6F87291430A9A926CB7
:101EE00041EAC201016044F22C40C5F602000168DB
:101EF00041F001010160FFE7FFE7FFE7FFE7002096
:101F00008DF82F00FFE79DF82F000CB080BD00007A
:101F100080B582B0014601900198009100F0F4F87C
:101F200002B080BD00000000FFE7FEE700000000F7
:101F300080B586B000200590049003900290019037
:101F4000FEF74AFD01208DF80800DDF804E08DF869
:101F500009E0CDF80CE01F218DF8101087218DF8D5
:101F600011108DF812E08DF813E08DF814008DF843
:101F700015008DF816E08DF817E002A8FEF7F0FCCA
:101F80000420FEF73DFD06B080BD0000000000000B
:101F900080B592B00020119010900F900E900D908F
:101FA000FFE744F2E040C5F60200016841F0040199
:101FB0000160006800F004000C900C980990FFE7A5
:101FC000FFE744F2E040C5F60200016841F08001FD
:101FD0000160006800F080000B900B980890FFE70C
:101FE000FFE744F2E040C5F60200016841F001015C
:101FF0000160006800F001000A900A980790FFE76E
:1020000040F60000C5F602000E210122069005915F
:102010000492FEF7D5FB05980D9004990E910F914F
:10202000032210920DAA069811460392FEF7BCF9FE
:1020300004200D904FF444100E9004980F9000204F
:10204000C5F602000399FEF7AFF9082000210290BF
:102050000191019AFEF710FD0298FEF701FD12B002
:1020600080BD000000000000FFE7FEE70000000068
:10207000FFE7FEE70000000080B58BB013468C46FA
:1020800086460A90099108920A9800F00700079086
:102090000798C0F1070005280493CDF80CC0CDF8CF
:1020A00008E003D3FFE70420019004E00798C0F1A3
:1020B00007000190FFE70198069007980430062872
:1020C00003D8FFE70020009003E007980338009052
:1020D000FFE70098059009980699012202FA01F19C
:1020E0000139084005998840089B02FA01F101393D
:1020F000194008430BB080BD70470000000000008D
:10210000704700000000000080B584B001460290D6
:1021100002980138B0F1807F019103D3FFE70120DD
:1021200003901BE0029801384EF21401CEF2000138
:1021300008604FF0FF300F2100F0A6F94EF21800B2
:10214000CEF20000002101604EF21000CEF200003D
:102150004FF0070EC0F800E00391FFE7039804B0CA
:1021600080BD00000000000080B5FEF75DFB80BD73
:1021700080B5A2B00FA84C21FEF7B1F800200E9058
:102180000D900C900B900A900990089007900220F7
:10219000FEF7A2FC0390FFE70020069040F22C40DF
:1021A000C5F60000016821F001010160006800F03F
:1021B0000100069044F61800C5F60200016841F4DB
:1021C00040410160006800F440400690069802908B
:1021D000FFE7FFE744F61800C5F60200006800F4C8
:1021E0000050B0F5005F01D0FFE7F3E7FFE744F2EE
:1021F000F440C5F60200016841F002010160006888
:1022000000F00200059005980190FFE7FFE700202D
:10221000049044F61800C5F60200016841F44041FC
:102220000160006800F44040049040F22C40C5F684
:102230000000016841F001010160006800F0010048
:10224000049004980090FFE7FFE744F61800C5F6F5
:102250000200006800F40050B0F5005F01D0FFE715
:10226000F3E701200F904FF4803010900220189077
:10227000199005211A91C0211B911C901D901E9050
:1022800008201F900020209021900FA8FFF764F8ED
:10229000002803D0FFE7FEF75BF8FFE73F20079039
:1022A000032008900020099008200A9040200B90FD
:1022B0000C904FF480610D910E9007A80421FEF759
:1022C00063FC002803D0FFE7FEF742F8FFE722B0E7
:1022D00080BD0000000000004EF68850CEF20000E5
:1022E000016841F47001016042F20000C5F2002073
:1022F000006800F00F0006280AD8FFE742F200004D
:10230000C5F200200168072262F303010160FFE7C4
:1023100044F20040C5F60200016841F0010101608D
:1023200044F21041C5F6020100220A6001684EF62F
:102330007F52CEF6F6221140016042F20000C5F253
:102340000020006800F00F0008280AD3FFE742F2DF
:102350000000C5F200200168072262F3030101605A
:10236000FFE744F21840C5F602000021016044F284
:102370001C40C5F60200016044F22040C5F6020090
:10238000016044F22840C5F6020040F20022C0F28B
:102390000222026044F22C40C5F602000022C0F284
:1023A000FF12026044F23040C5F6020040F2802283
:1023B000C0F20112026044F23440C5F6020001602E
:1023C00044F23840C5F60200026044F23C40C5F6D3
:1023D0000200016044F24040C5F60200026044F28F
:1023E0004440C5F60200016044F20040C5F6020018
:1023F000026822F48022026044F26040C5F60200C6
:10240000016041F20000C5F600400068B1EB507F6A
:1024100007D1FFE748F20810C5F200100121016062
:10242000FFE744F20000C5F2002043F2D201016050
:102430007047000000000000FFE7FEE7000000001A
:1024400082B00146ADF80600BDF9060000280091F3
:102450000FDBFFE7BDF9060000F01F01012202FAC1
:1024600001F140094EF20012CEF2000242F82010B3
:10247000FFE702B0704700004EF60C50CEF20000AD
:102480000068C0F30220704784B00A460346ADF8E6
:102490000E000291BDF90E000028019200930ADBA4
:1024A000FFE702980001BDF90E104EF20042CEF295
:1024B000000288540BE002980001BDF80E1001F0F4
:1024C0000F014EF61452CEF200028854FFE704B01A
:1024D000704700000000000084B00146039003989C
:1024E00000F0070001904EF60C50CEF2000002689A
:1024F0000292029A4FF6FF031A400292029A019B3F
:1025000042EA03220023C0F2FA531A430292029ACB
:102510000260009104B0704780B584B00020039041
:10252000FFF706FDFEF790F90290FFF721FEFFF797
:102530002FFDFFE740F20800C2F2004000780028BB
:1025400018BF012040F60001C5F602014FF002025B
:10255000019008461146019AFEF732F9EAE702E0D7
:1025600008C8121F08C1002AFAD17047704700201E
:1025700001E001C1121F002AFBD1704700000000DA
:10258000010203040102030406070809B02500083C
:1025900000000024100000005E250008C02500088F
:1025A00010000024080400006E2500080000000050
:1025B0000090D0030090D003010100001000000043
:040000050800029954
:00000001FF
